{
    "contractName": "DecentralizedCrowdfunding",
    "abi": [
        {
            "inputs": [],
            "name": "CampaignEnded",
            "type": "error"
        },
        {
            "inputs": [],
            "name": "CampaignNotEnded",
            "type": "error"
        },
        {
            "inputs": [],
            "name": "FundsAlreadyClaimed",
            "type": "error"
        },
        {
            "inputs": [],
            "name": "GoalNotReached",
            "type": "error"
        },
        {
            "inputs": [],
            "name": "GoalReached",
            "type": "error"
        },
        {
            "inputs": [],
            "name": "InvalidContribution",
            "type": "error"
        },
        {
            "inputs": [],
            "name": "InvalidGoal",
            "type": "error"
        },
        {
            "inputs": [],
            "name": "NoContributionMade",
            "type": "error"
        },
        {
            "anonymous": false,
            "inputs": [
                {
                    "indexed": true,
                    "internalType": "uint256",
                    "name": "campaignId",
                    "type": "uint256"
                },
                {
                    "indexed": false,
                    "internalType": "address",
                    "name": "owner",
                    "type": "address"
                },
                {
                    "indexed": false,
                    "internalType": "uint256",
                    "name": "goal",
                    "type": "uint256"
                },
                {
                    "indexed": false,
                    "internalType": "uint256",
                    "name": "deadline",
                    "type": "uint256"
                }
            ],
            "name": "CampaignCreated",
            "type": "event"
        },
        {
            "anonymous": false,
            "inputs": [
                {
                    "indexed": true,
                    "internalType": "uint256",
                    "name": "campaignId",
                    "type": "uint256"
                },
                {
                    "indexed": false,
                    "internalType": "address",
                    "name": "contributor",
                    "type": "address"
                },
                {
                    "indexed": false,
                    "internalType": "uint256",
                    "name": "amount",
                    "type": "uint256"
                }
            ],
            "name": "ContributionMade",
            "type": "event"
        },
        {
            "anonymous": false,
            "inputs": [
                {
                    "indexed": true,
                    "internalType": "uint256",
                    "name": "campaignId",
                    "type": "uint256"
                },
                {
                    "indexed": false,
                    "internalType": "uint256",
                    "name": "amount",
                    "type": "uint256"
                }
            ],
            "name": "FundsClaimed",
            "type": "event"
        },
        {
            "inputs": [
                {
                    "internalType": "uint256",
                    "name": "",
                    "type": "uint256"
                }
            ],
            "name": "campaigns",
            "outputs": [
                {
                    "internalType": "address payable",
                    "name": "owner",
                    "type": "address"
                },
                {
                    "internalType": "uint256",
                    "name": "goal",
                    "type": "uint256"
                },
                {
                    "internalType": "uint256",
                    "name": "deadline",
                    "type": "uint256"
                },
                {
                    "internalType": "uint256",
                    "name": "fundsRaised",
                    "type": "uint256"
                },
                {
                    "internalType": "bool",
                    "name": "claimed",
                    "type": "bool"
                }
            ],
            "stateMutability": "view",
            "type": "function"
        },
        {
            "inputs": [
                {
                    "internalType": "uint256",
                    "name": "_campaignId",
                    "type": "uint256"
                }
            ],
            "name": "claimFunds",
            "outputs": [],
            "stateMutability": "nonpayable",
            "type": "function"
        },
        {
            "inputs": [
                {
                    "internalType": "uint256",
                    "name": "_campaignId",
                    "type": "uint256"
                }
            ],
            "name": "contribute",
            "outputs": [],
            "stateMutability": "payable",
            "type": "function"
        },
        {
            "inputs": [
                {
                    "internalType": "uint256",
                    "name": "_goal",
                    "type": "uint256"
                },
                {
                    "internalType": "uint256",
                    "name": "_duration",
                    "type": "uint256"
                }
            ],
            "name": "createCampaign",
            "outputs": [],
            "stateMutability": "nonpayable",
            "type": "function"
        },
        {
            "inputs": [],
            "name": "numCampaigns",
            "outputs": [
                {
                    "internalType": "uint256",
                    "name": "",
                    "type": "uint256"
                }
            ],
            "stateMutability": "view",
            "type": "function"
        },
        {
            "inputs": [
                {
                    "internalType": "uint256",
                    "name": "_campaignId",
                    "type": "uint256"
                }
            ],
            "name": "refundCampaign",
            "outputs": [],
            "stateMutability": "nonpayable",
            "type": "function"
        }
    ],
    "bytecode": "608060405234801561000f575f80fd5b506105bd8061001d5f395ff3fe608060405260043610610054575f3560e01c8063141961bc146100585780631b55e338146100e757806322502268146101085780632c0f7b6f14610127578063c1cbbca714610149578063f59a9bb01461015c575b5f80fd5b348015610063575f80fd5b506100ae61007236600461050b565b600160208190525f9182526040909120805491810154600282015460038301546004909301546001600160a01b03909416939192909160ff1685565b604080516001600160a01b03909616865260208601949094529284019190915260608301521515608082015260a0015b60405180910390f35b3480156100f2575f80fd5b5061010661010136600461050b565b61017b565b005b348015610113575f80fd5b50610106610122366004610522565b610288565b348015610132575f80fd5b5061013b5f5481565b6040519081526020016100de565b61010661015736600461050b565b61035e565b348015610167575f80fd5b5061010661017636600461050b565b61044f565b5f81815260016020526040902060028101544210156101ad5760405163cc76115360e01b815260040160405180910390fd5b8060010154816003015410156101d6576040516378c754c960e01b815260040160405180910390fd5b600481015460ff16156101fc5760405163332e4aab60e01b815260040160405180910390fd5b60048101805460ff19166001179055805460038201546040516001600160a01b039092169181156108fc0291905f818181858888f19350505050158015610245573d5f803e3d5ffd5b50817ff5113038110e08c7fac91012f7b68c6010271f7653a75b250e714f6d1e2d7590826003015460405161027c91815260200190565b60405180910390a25050565b815f036102a857604051639b60eb4d60e01b815260040160405180910390fd5b5f6102b38242610556565b90505f60015f805f8154809291906102ca9061056f565b90915550815260208082019290925260409081015f90812080546001600160a01b03191633908117825560018201899055600282018790556003820183905560048201805460ff19169055915483519283529382018890529181018590529092507f91b289a829e71d811b8c69e4a24ba2d40d115d8a236e9a724cb3bb2d43cf72239060600160405180910390a250505050565b5f8181526001602052604090206002810154421061038f5760405163154eb81560e21b815260040160405180910390fd5b345f036103af5760405163652122d960e01b815260040160405180910390fd5b34816003015f8282546103c29190610556565b9091555050335f908152600682016020526040812080543492906103e7908490610556565b90915550506005810180546001810182555f9182526020918290200180546001600160a01b0319163390811790915560408051918252349282019290925283917f0a4a91237423e0a1766a761c7cb029311d8b95d6b1b81db1b949a70c98b4e08e910161027c565b5f81815260016020526040902060028101544210156104815760405163cc76115360e01b815260040160405180910390fd5b80600101548160030154106104a95760405163f30bb8af60e01b815260040160405180910390fd5b335f8181526006830160205260409020548015610505576001600160a01b0382165f8181526006850160205260408082208290555183156108fc0291849190818181858888f19350505050158015610503573d5f803e3d5ffd5b505b50505050565b5f6020828403121561051b575f80fd5b5035919050565b5f8060408385031215610533575f80fd5b50508035926020909101359150565b634e487b7160e01b5f52601160045260245ffd5b8082018082111561056957610569610542565b92915050565b5f6001820161058057610580610542565b506001019056fea2646970667358221220ff031ca998623447231a6dedcdefee566c4b66f6514ade05757fc6f1150f323c64736f6c63430008170033",
    "sourcePath": "c:/Users/anton/Desktop/BlockChain-Projects/eattheblocks/week3HW/src/DecentralizedCrowdFunding.sol",
    "compiler": {
        "name": "solc",
        "version": "0.8.23+commit.f704f362"
    },
    "functionHashes": {
        "campaigns(uint256)": "141961bc",
        "claimFunds(uint256)": "1b55e338",
        "contribute(uint256)": "c1cbbca7",
        "createCampaign(uint256,uint256)": "22502268",
        "numCampaigns()": "2c0f7b6f",
        "refundCampaign(uint256)": "f59a9bb0"
    },
    "gasEstimates": {
        "creation": {
            "codeDepositCost": "293800",
            "executionCost": "329",
            "totalCost": "294129"
        },
        "external": {
            "campaigns(uint256)": "11006",
            "claimFunds(uint256)": "infinite",
            "contribute(uint256)": "infinite",
            "createCampaign(uint256,uint256)": "126569",
            "numCampaigns()": "2337",
            "refundCampaign(uint256)": "infinite"
        }
    }
}